:020000040800F2
:10000000005000203D020008390600083B060008A9
:100010003D0600083F0600084106000800000000F9
:10002000000000000000000000000000711A00083D
:100030004306000800000000111B0008551B0008C3
:100040008502000885020008850200088502000874
:100050008502000885020008850200088502000864
:100060008502000885020008850200088502000854
:100070008502000885020008850200088502000844
:100080008502000885020008850200088502000834
:100090008502000885020008850200088502000824
:1000A0008502000885020008850200088502000814
:1000B0004506000885020008850200088502000840
:1000C00085020008850200088502000885020008F4
:1000D00085020008850200088502000885020008E4
:1000E0008502000885020008850200080000000063
:1000F0000000000000000000000000000000000000
:0C01000000000000000000005FF808F1A3
:10011000844641EA000313F0030349D1403A23D354
:100120000B6803604B6843608B688360CB68C36077
:100130000B6903614B6943618B698361CB69C3615F
:100140000B6A03624B6A43628B6A8362CB6AC36247
:100150000B6B03634B6B43638B6B8363CB6BC3632F
:1001600040304031403ADBD230320BD30B68036071
:100170004B6843608B688360CB68C360103010317C
:10018000103AF3D20C3205D351F8043B40F8043B4B
:10019000043AF9D2043208D0D2071CBF11F8013B4F
:1001A00000F8013B01D30B8803806046704700BF15
:1001B000082A13D38B07B1D010F00303AED0C3F1DC
:1001C0000403D21ADB071CBF11F8013B00F8013B06
:1001D000A4D331F8023B20F8023B9FE7043AD9D37D
:1001E000013A11F8013B00F8013BF9D20B7803709A
:1001F0004B7843708B7883706046704710B5054C20
:10020000237833B9044B13B10448AFF300800123C2
:10021000237010BD3C040020000000005835000889
:1002200008B5034B1BB103490348AFF3008008BD79
:10023000000000004004002058350008002103E0C1
:100240000B4B5B58435004310A480B4B42189A42FF
:10025000F6D30A4A02E0002342F8043B084B9A42D4
:10026000F9D300F0F7F903F0B1F800F005F97047A1
:1002700058360008000000203C0400203C04002008
:10028000B81E0020FEE708B5012001F02BFBFBE7BC
:1002900008B50A4A136801331360642001F022FB99
:1002A00000220121064800F0BBFB4FF47A730322C1
:1002B0000449054801F07BF9EBE700BF5804002032
:1002C000000C0140703500080805002000B585B01D
:1002D0000F4C4FF40051204600F0A8FB0023009380
:1002E0000193029303934FF47A730F2269460948EE
:1002F00001F0C9F94FF40051204600F097FB4FF48C
:100300007A7001F0EFFA012001F0ECFAE0E700BFAB
:10031000001001400805002008B50B4A00210B48D9
:1003200001F06AFA0A4B18600A4A00210A4801F0F3
:1003300063FA0A4B18600A4A00210A4801F05CFA85
:10034000094B186008BD00BF9835000887020008F7
:100350005C040020BC350008910200086004002005
:10036000E0350008CD02000864040020F0B589B033
:1003700000240494059406940794274B9A6942F04C
:1003800010029A619A6902F010020092009A9A692A
:1003900042F020029A619A6902F020020192019AC9
:1003A0009A6942F008029A619A6902F00802029280
:1003B000029A9A6942F004029A619B6903F004036D
:1003C0000393039B154F22464FF40051384600F02B
:1003D00027FB134D01221146284600F021FB22463F
:1003E0000221284600F01CFB4FF400530493012621
:1003F000059606940223079304A9384600F0FEF9F7
:100400000323049305960694079604A9284600F052
:10041000F5F909B0F0BD00BF001002400010014026
:10042000000C014030B591B02822002106A802F04E
:10043000F1FF002401940294039404940594012292
:1004400006924FF4803307930A9202250D950E937E
:100450004FF4E0130F9306A800F008FB0F2301935D
:10046000029503944FF4806304930594294601A8F0
:1004700000F03AFD11B030BD08B500F043F9FFF7C8
:10048000D1FFFFF773FF00F013F800F0E5F801F07B
:100490006BF9FFF741FF01F089F9FEE708B5036842
:1004A000B3F1804F00D008BD00F03EF9FBE7704784
:1004B00008B50E480E4B03604FF48273436000236F
:1004C0008360C360036143614FF400728261202244
:1004D000C2610362436283620A23C36200F0FEFDCD
:1004E00000B908BDFFF7E3FFFBE700BF6804002089
:1004F0000038004010B586B00023029303930493A4
:1005000005930268174B9A4201D006B010BD03F55F
:10051000EC33DA6942F48042DA61DA6902F480424B
:100520000092009A9A6942F008029A619B6903F06E
:1005300008030193019B4FF420430293022303938A
:1005400003230593084C02A9204600F057F94FF405
:100550008043029300230393049302A9204600F0F2
:100560004DF9D2E700380040000C014000B583B0DF
:10057000114B9A6942F001029A619A6902F00102F4
:100580000092009ADA6942F08052DA61DB6903F086
:1005900080530193019B00220F216FF0010000F0B6
:1005A000E7F8064A536823F0E06343F000735360B2
:1005B00003B05DF804FB00BF0010024000000140E2
:1005C00000B589B0014600221C2000F0D1F81C20A3
:1005D00000F006F9154BDA6942F00102DA61DB69D5
:1005E00003F001030193019B02A903A800F058FD49
:1005F00000F036FD43000E48A0FB03239B0C013B9B
:100600000C484FF08042026040F2E732C260436023
:1006100000230361836000F0EDFE18B1012009B0F2
:100620005DF804FB034800F0B5FDF8E70010024058
:1006300083DE1B43C00400207047FEE7FEE7FEE7B1
:10064000FEE7704708B5024800F0DCFD08BD00BFBA
:10065000C00400207047000008B50A480A4B036038
:100660004FF41653436000238360C36003610C2280
:1006700042618361C36100F06BFF00B908BDFFF701
:1006800016FFFBE7080500200038014010B586B0D2
:10069000002302930393049305930268174B9A4235
:1006A00001D006B010BD03F558439A6942F4804268
:1006B0009A619A6902F480420092009A9A6942F023
:1006C00004029A619B6903F004030193019B4FF4B8
:1006D000007302930223039303230593084C02A99A
:1006E000204600F08BF84FF48063029300230393BD
:1006F000049302A9204600F081F8D2E700380140B7
:100700000008014008B5074A136843F0100313605E
:10071000032000F01BF80020FFF752FFFFF726FF31
:10072000002008BD00200240034A1168034B1B78DB
:100730000B441360704700BF4805002004000020F0
:10074000014B1868704700BF48050020074AD3686E
:1007500023F4E0631B041B0C000200F4E06003437D
:1007600043F0BF6343F40033D360704700ED00E013
:1007700000B5194BDB68C3F30223C3F1070CBCF1CE
:10078000040F28BF4FF0040C03F1040EBEF1060F56
:1007900018D9033B4FF0FF3E0EFA0CFC21EA0C0186
:1007A00099400EFA03F322EA0303194300280BDBF6
:1007B0000901C9B200F1604000F5614080F8001302
:1007C0005DF804FB0023E5E700F00F000901C9B262
:1007D000024B1954F4E700BF00ED00E014ED00E017
:1007E000002807DB00F01F02400901239340024A62
:1007F00042F82030704700BF00E100E070B582B0E1
:100800000024A446A6E0804DAA4210D007D97F4D0F
:10081000AA420CD005F58035AA4208D013E0A5F510
:100820008015AA4203D005F57025AA4207D18A682F
:10083000002A58D0012A51D04361082403E0A5F5CD
:100840008015AA42F3D0BEF1FF0F4ED80646BEF186
:10085000FF0F4CD84FEA8C0233680F25954023EAEE
:10086000050304FA02F2134333604B6813F0805F10
:100870006ED0674B9A6942F001029A619B6903F05E
:1008800001030193019B4FEA9C02951C614B53F8B5
:1008900025600CF003039D000F23AB4026EA0306FE
:1008A0005D4B984229D003F58063984200F08E801A
:1008B00003F58063984200F08B8003F580639842D3
:1008C00019D004231AE0CC68BDE7CC680434BAE739
:1008D000CC680834B7E7CC680C34B4E7036108246B
:1008E000B1E70024AFE70424ADE7061DAFE7ACF1A4
:1008F00008029200B0E7032300E00023AB4033433B
:100900000232444D45F822304B6813F4803F61D0E9
:10091000424A136843EA0E0313604B6813F4003F26
:100920005ED03E4A536843EA0E0353604B6813F4AB
:10093000801F5BD0394A936843EA0E0393604B688B
:1009400013F4001F58D0354AD36843EA0E03D3602E
:100950000CF1010C0A6832FA0CF353D0012303FAAC
:100960000CF302EA030E33EA0202F1D14A68122ABA
:100970003FF649AF122A3FF666AF01A555F822F0BF
:100980002F080008C7080008D1080008E30800087D
:1009900047080008470800084708000847080008FB
:1009A00047080008470800084708000847080008EB
:1009B00047080008470800084708000847080008DB
:1009C00047080008CB080008D7080008012395E76E
:1009D000022393E7114A136823EA0E0313609CE78E
:1009E0000E4A536823EA0E0353609FE70B4A93684D
:1009F00023EA0E039360A2E7084AD36823EA0E03B2
:100A0000D360A5E702B070BD0000221000003110D5
:100A100000100240000001400008014000040140B5
:100A20000AB101617047090401617047C36801EAB6
:100A3000030221EA030141EA02410161704700001B
:100A400082B0084B1B68084AA2FB03235B0A00FB29
:100A500003F3019300BF019B5A1E0192002BF9D1B1
:100A600002B0704700000020D34D6210002800F053
:100A7000F18170B582B00446036813F0010F2CD0E9
:100A8000994B5B6803F00C03042B1DD0964B5B68FD
:100A900003F00C03082B12D06368B3F5803F41D0FC
:100AA000002B55D103F1804303F504331A6822F477
:100AB00080321A601A6822F480221A6037E08A4B6A
:100AC0005B6813F4803FE7D0874B1B6813F4003F4B
:100AD00003D06368002B00F0BF81236813F0020F7E
:100AE00075D0814B5B6813F00C0F5FD07E4B5B6859
:100AF00003F00C03082B54D02369002B00F08A80EC
:100B00007A4B01221A60FFF71BFE0546764B1B68E5
:100B100013F0020F75D1FFF713FE401B0228F5D921
:100B200003209EE1704A136843F4803313606368C6
:100B300043B3FFF705FE05466B4B1B6813F4003FFC
:100B4000CBD1FFF7FDFD401B6428F5D9032088E1D8
:100B5000B3F5A02F09D0644B1A6822F480321A60D2
:100B60001A6822F480221A60E1E703F18043A3F5BA
:100B70003C331A6842F480221A601A6842F48032C8
:100B80001A60D4E7FFF7DCFD0546574B1B6813F4EA
:100B9000003FA2D0FFF7D4FD401B6428F5D9032005
:100BA0005FE1514B5B6813F4803FA5D14E4B1B684E
:100BB00013F0020F03D02369012B40F04F814A4A02
:100BC000136823F0F803616943EAC10313602368E3
:100BD00013F0080F33D0A369002B5CD0434B0122E4
:100BE000C3F88024FFF7ACFD05463F4B5B6A13F06A
:100BF000020F21D1FFF7A4FD401B0228F5D90320E5
:100C00002FE1394A136823F0F803616943EAC1030D
:100C10001360DCE7354B00221A60FFF791FD0546B3
:100C2000314B1B6813F0020FD1D0FFF789FD401B39
:100C30000228F5D9032014E10120FFF701FF236802
:100C400013F0040F00F09680274BDB6913F0805FF0
:100C500034D1254BDA6942F08052DA61DB6903F066
:100C600080530193019B0125214B1B6813F4807F66
:100C700026D0E368012B3DD0002B53D103F18043F4
:100C800003F504331A6A22F001021A621A6A22F08A
:100C900004021A6233E0154B0022C3F88024FFF7E8
:100CA0004FFD0546104B5B6A13F0020FC7D0FFF7EC
:100CB00047FD401B0228F5D90320D2E00025D3E7E9
:100CC0000B4A136843F480731360FFF739FD06463F
:100CD000074B1B6813F4807FCBD1FFF731FD801BDE
:100CE0006428F5D90320BCE0001002400000424215
:100CF000007000405F4A136A43F001031362E36827
:100D000033B3FFF71DFD06465A4B1B6A13F0020F63
:100D10002FD1FFF715FD801B41F288339842F3D99C
:100D200003209EE0052B09D0524B1A6A22F00102E3
:100D30001A621A6A22F004021A62E0E74D4B1A6A3C
:100D400042F004021A621A6A42F001021A62D6E7FD
:100D5000FFF7F6FC0646474B1B6A13F0020F08D05C
:100D6000FFF7EEFC801B41F288339842F3D9032051
:100D700077E0E5B9E369002B72D03E4A526802F091
:100D80000C02082A56D0022B17D03B4B00221A66C1
:100D9000FFF7D6FC0446374B1B6813F0007F47D0A3
:100DA000FFF7CEFC001B0228F5D9032059E0314A99
:100DB000D36923F08053D361DCE72F4B00221A66FE
:100DC000FFF7BEFC05462B4B1B6813F0007F06D0D7
:100DD000FFF7B6FC401B0228F5D9032041E0236A47
:100DE000B3F5803F1AD023494B6823F47413226A69
:100DF000606A024313434B601F4B01221A66FFF7E0
:100E00009FFC04461B4B1B6813F0007F0ED1FFF7BD
:100E100097FC001B0228F5D9032022E0154A5368ED
:100E200023F40033A1680B435360DCE7002018E093
:100E3000002016E0012B16D00E4B5B6803F48031C6
:100E4000226A914211D103F47013626A93420ED167
:100E5000002006E001207047012002E0012000E0B0
:100E6000002002B070BD0120FBE70120F9E701205E
:100E7000F7E700BF001002400000424286B0164B68
:100E80000FCB0DF1180C0CE90F0040F20123ADF867
:100E90000430124B5B6803F00C02082A02D01048A1
:100EA00006B07047C3F38342624412F8100C13F487
:100EB000803F0CD0094B5B68C3F34043634413F895
:100EC000143C074A02FB00F0B0FBF3F0E8E7054BE7
:100ED00003FB00F0E4E700BF1C36000800100240EE
:100EE00000127A0000093D00002800F0A08070B5D3
:100EF0000D460446524B1B6803F007038B420BD28E
:100F00004F4A136823F007030B431360136803F081
:100F100007038B4240F08D80236813F0020F17D037
:100F200013F0040F04D0474A536843F4E06353605E
:100F3000236813F0080F04D0424A536843F4605307
:100F40005360404A536823F0F003A1680B43536099
:100F5000236813F0010F31D06368012B20D0022BDE
:100F600025D0384A126812F0020F64D035494A6819
:100F700022F0030213434B60FFF7E2FB0646314BBE
:100F80005B6803F00C036268B3EB820F16D0FFF7C7
:100F9000D7FB801B41F288339842F0D9032045E00B
:100FA000284A126812F4003FE0D101203EE0254AB1
:100FB000126812F0007FD9D1012037E0204B1B6866
:100FC00003F00703AB420AD91D4A136823F0070355
:100FD0002B431360136803F00703AB422DD1236842
:100FE00013F0040F06D0174A536823F4E063E16856
:100FF0000B435360236813F0080F07D0114A53685E
:1010000023F46053216943EAC1035360FFF736FFBD
:101010000C4B5B68C3F303130B4AD35CD8400B4BF8
:1010200018600B4B1868FFF7CBFA002070BD012049
:1010300070470120FAE70120F8E70120F6E700BF3A
:10104000002002400010024004360008000000208A
:1010500008000020014B1868704700BF0000002006
:1010600008B5FFF7F7FF044B5B68C3F30223034A9D
:10107000D35CD84008BD00BF001002401436000801
:1010800008B5FFF7E7FF044B5B68C3F3C223034ACD
:10109000D35CD84008BD00BF0010024014360008E1
:1010A0000F2303600B4B5A6802F0030242605A6838
:1010B00002F0F00282605A6802F4E062C2605B688B
:1010C000DB0803F4E0630361034B1B6803F00703D1
:1010D0000B6070470010024000200240002856D0EC
:1010E00010B50446436A33B94368B3F5827F05D02F
:1010F0000023C36102E00023036143610023A36274
:1011000094F85130002B3CD0022384F851302268EF
:10111000136823F040031360636803F48273A268CA
:1011200002F404421343E26802F4006213432269AA
:1011300002F002021343626902F001021343A26942
:1011400002F400721343E26902F038021343226A88
:1011500002F080021343A26A02F400522168134392
:101160000B60638B226803F0040353602268D36929
:1011700023F40063D36100206065012384F85130BB
:1011800010BD84F850302046FFF7B4F9BCE70120C9
:101190007047704790F83D30DBB2012B27D1022316
:1011A00080F83D300268D36843F00103D3600368E0
:1011B000114A934210D0B3F1804F0DD0A2F5943272
:1011C000934209D002F58062934205D01A6842F03A
:1011D00001021A60002070479A6802F00702062A8E
:1011E00007D01A6842F001021A60002070470120FF
:1011F00070470020704700BF002C014070477047C7
:101200007047704710B5044603681A6912F0020F60
:1012100011D0DA6812F0020F0DD06FF002021A61DD
:101220000123037703689B6913F0030F70D0FFF766
:10123000E6FF0023237723681A6912F0040F12D007
:10124000DA6812F0040F0ED06FF004021A61022364
:10125000237723689B6913F4407F5FD02046FFF714
:10126000CEFF0023237723681A6912F0080F12D0EB
:10127000DA6812F0080F0ED06FF008021A6104232A
:1012800023772368DB6913F0030F4ED02046FFF766
:10129000B6FF0023237723681A6912F0100F12D0CB
:1012A000DA6812F0100F0ED06FF010021A610823E6
:1012B00023772368DB6913F4407F3DD02046FFF796
:1012C0009EFF0023237723681A6912F0010F03D0D1
:1012D000DA6812F0010F36D123681A6912F0800F14
:1012E00003D0DA6812F0800F34D123681A6912F043
:1012F000400F03D0DA6812F0400F32D123681A6928
:1013000012F0200F03D0DA6812F0200F30D110BD98
:10131000FFF774FF2046FFF773FF8AE72046FFF7C9
:101320006DFF2046FFF76CFF9BE72046FFF766FF47
:101330002046FFF765FFACE72046FFF75FFF20463A
:10134000FFF75EFFBDE76FF001021A612046FFF76D
:10135000A5F8C1E76FF080021A61204600F077F827
:10136000C3E76FF040021A612046FFF74AFFC5E766
:101370006FF020021A61204600F068F8C7E700000D
:1013800003681B4A90420AD0B0F1804F07D0A2F503
:101390009432904203D002F58062904203D123F050
:1013A00070034A681343124A90420AD0B0F1804F4A
:1013B00007D0A2F59432904203D002F580629042A9
:1013C00003D123F44073CA68134323F080034A69AE
:1013D000134303608B68C3620B688362044B9842BB
:1013E00002D00123436170470B690363F9E700BF33
:1013F000002C014040B310B5044690F83D30F3B1E5
:10140000022384F83D30214651F8040BFFF7B8FF62
:10141000012384F8463084F83E3084F83F3084F865
:10142000403084F8413084F8423084F8433084F806
:10143000443084F8453084F83D30002010BD80F8F9
:101440003C30FFF7A6FEDBE701207047704770478E
:1014500010B504460268136923F44053C1680B4376
:10146000136183680269134342691A430168CB68B8
:1014700023F4B05323F00C031343CB600268536989
:1014800023F4407381690B4353610268134B9A4202
:1014900020D0FFF7E5FD024602EB820202EB82025A
:1014A00063689B00B2FBF3F20D48A0FB02314909CF
:1014B000642303FB11231B013233A0FB03235B09CD
:1014C00003F0F00202EB011203F00F032168134452
:1014D0008B6010BDFFF7D4FD0246DDE70038014008
:1014E0001F85EB512DE9F84305460F4616469946F0
:1014F000DDF820802C68246837EA04030CBF4FF025
:10150000010C4FF0000CB4451FD1B8F1FF3FF1D0F2
:10151000B8F1000F05D0FFF713F9A0EB0900404523
:10152000E8D92A68D36823F4D073D3602A68536952
:1015300023F001035361202385F8393085F83A30D0
:10154000002385F83830032000E00020BDE8F88350
:1015500058B310B5044690F839300BB3242384F8FF
:1015600039302268D36823F40053D3602046FFF754
:101570006FFF2268136923F4904313612268536953
:1015800023F02A0353612268D36843F40053D360E5
:101590000020E063202384F8393084F83A3010BD0D
:1015A00080F83830FFF772F8D8E7012070472DE94E
:1015B000F04182B01E4690F83930DBB2202B54D176
:1015C00004460D469046002953D0002A53D090F887
:1015D0003830012B51D0012380F838300023C36309
:1015E000212380F83930FFF7ABF80746A4F82480B0
:1015F000A4F82680A368B3F5805F05D04FF00008FB
:10160000002384F8383012E0236913B14FF000084A
:10161000F6E7A8460025F3E738F8023B2268C3F353
:1016200008035360E28C92B2013A92B2E284E38CF6
:101630009BB273B100963B46002280212046FFF703
:1016400051FFE0B9002DE7D015F8012B23685A604F
:10165000E8E700963B46002240212046FFF742FF84
:1016600078B9202384F8393000E0022002B0BDE8C8
:10167000F0810120FAE70120F8E70220F6E70320D5
:10168000F4E70320F2E72DE9F04182B01E4690F81E
:101690003A30DBB2202B5BD104460D469046002940
:1016A0005AD0002A5AD090F83830012B58D0012354
:1016B00080F838300023C363222380F83A30FFF7E4
:1016C0003FF80746A4F82C80A4F82E80A368B3F551
:1016D000805F05D04FF00008002384F8383017E011
:1016E000236913B14FF00008F6E7A8460025F3E799
:1016F00023685B68C3F3080328F8023B03E0236810
:101700005B682B700135E28D92B2013A92B2E285AC
:10171000E38D9BB2BBB100963B46002220212046C0
:10172000FFF7E0FEF0B9002DE2D0A368B3F5805FCB
:10173000E5D013B92369002BE1D023685B6803F07F
:101740007F032B70DEE7202384F83A30002000E08E
:10175000022002B0BDE8F0810120FAE70120F8E79D
:101760000220F6E70320F4E7EFF3058393B9EFF3E4
:10177000108393B90C4B1868022804D080B90A4B27
:1017800001221A607047EFF31183002BF6D06FF03F
:10179000050070476FF0050070476FF00500704757
:1017A0004FF0FF30704700BFA807002008B5EFF3E7
:1017B0000583B3B9EFF31083B3B90E4B1B68022B4B
:1017C00008D0012B13D10B4B02221A6001F0D0F884
:1017D000002008BDEFF31182002AF2D06FF005005F
:1017E000F7E76FF00500F4E76FF00500F1E74FF061
:1017F000FF30EEE7A8070020F0B587B0002404947E
:10180000EFF30584002C43D1EFF31083002B3FD17D
:10181000334B1B68022B16D0002839D000238DF8DB
:10182000173062B3156895B1936903B918235C1E2C
:10183000372C51D8546814F0010F4FD156694EB16E
:101840004FEA960C08E0EFF311830BBBE4E70DF1D0
:101850001705E9E74FF0800C94682CB1D7685B2F2F
:1018600002D9176907B1B6B914B14FF0FF340CE0D3
:10187000D46894B914699CB14FF0FF3405E000249A
:1018800018234FF0800C0DF11705012C0AD0ACB1D4
:10189000049807B0F0BD0124F7E74FF0FF34F4E7F8
:1018A0000024F2E7146992680292019400930B46B7
:1018B0006246294600F0EEFF0490E9E704AA01928F
:1018C00000930B461FFA8CF2294601F01DF80128FF
:1018D000DED000230493DBE70020DAE70020D8E71E
:1018E000A807002008B5EFF30583A3B9EFF3108331
:1018F000A3B90C4B1B68022B02D040B9002008BDD5
:10190000EFF31183002BF8D06FF00500F7E701F03B
:1019100093F90020F3E76FF00500F0E76FF00500A2
:10192000EDE700BFA8070020034B0360034B0B60EB
:1019300080231360704700BF4C0700204C05002037
:10194000034B0360034B0B604FF4807313607047CD
:10195000AC0B0020AC07002000F1080343604FF0FF
:10196000FF328260C360036100230360704700237D
:101970000361704743684B609A688A605160996060
:101980000861036801330360704730B40D68B5F136
:10199000FF3F11D000F108031C465B681A68AA4299
:1019A000FAD963684B6099608C6061600861036874
:1019B0000133036030BC70470469F2E70369416892
:1019C00082688A60416851605A68824206D000226B
:1019D00002611A68013A1A601868704782685A6092
:1019E000F5E7000082B0002301930D4B1B68B3F1B3
:1019F000FF3F08D04FF0500383F31188BFF36F8F80
:101A0000BFF34F8FFEE74FF0500383F31188BFF30E
:101A10006F8FBFF34F8F019B002BFCD002B070473C
:101A20000C00002006480068006880F3088862B651
:101A300061B6BFF34F8FBFF36F8F00DF00BF0000B1
:101A400008ED00E04FF0807340F8043C21F0010104
:101A500040F8081C034B40F80C3C40F8202C403860
:101A6000704700BFE51900080000000000000000FA
:101A7000074B19680868B0E8F00F80F30988BFF3D6
:101A80006F8F4FF0000080F311884EF00D0E7047FD
:101A9000681800204FF0500383F31188BFF36F8F55
:101AA000BFF34F8F0B4A136801331360012B00D033
:101AB00070474FF0E023D3F8043D13F0FF0FF7D049
:101AC0004FF0500383F31188BFF36F8FBFF34F8F35
:101AD000FEE700BF0C000020094B1B6843B94FF024
:101AE000500383F31188BFF36F8FBFF34F8FFEE76F
:101AF000013B034A13600BB983F31188704700BFA1
:101B00000C000020000000000000000000000000A9
:101B1000EFF30980BFF36F8F0D4B1A6820E9F00FC8
:101B200010602DE908404FF0500080F3118801F05B
:101B3000A9F84FF0000080F31188BDE8084019684B
:101B40000868B0E8F00F80F30988BFF36F8F704723
:101B50006818002008B54FF0500383F31188BFF3D5
:101B60006F8FBFF34F8F00F05FFF28B14FF0E0237E
:101B70004FF08052C3F8042D002383F3118808BD71
:101B80004FF0E022002313619361054B1B68054968
:101B9000A1FB03139B09013B5361072313617047AA
:101BA00000000020D34D621010B582B02A4B1A7885
:101BB000D2B20192FF221A701B78DBB28DF803308B
:101BC0009DF8033003F05003244A1370244B07227E
:101BD0001A6009E0224A1368013B13609DF8033044
:101BE0005B00DBB28DF803309DF8033013F0800FFB
:101BF000F0D11B4B1B68032B08D04FF0500383F32D
:101C00001188BFF36F8FBFF34F8FFEE71B02144A9B
:101C1000136003F4E0631360019BDBB20E4A1370A0
:101C20004FF0E023D3F8202D42F47002C3F8202DAA
:101C3000D3F8202D42F07042C3F8202DFFF7A0FF0B
:101C40000024084B1C60FFF7EDFE01F01BF8FFF7C6
:101C5000C9FE204602B010BD00E400E0080C0020E0
:101C60000C0C00200C000020EFF305830F2B0FD984
:101C7000114A9B5CDBB2114A12789A4208D94FF0A4
:101C8000500383F31188BFF36F8FBFF34F8FFEE7CD
:101C90004FF0E023D3F80C3D03F4E063084A1268E8
:101CA000934208D94FF0500383F31188BFF36F8F2D
:101CB000BFF34F8FFEE77047F0E300E0080C002011
:101CC0000C0C0020124A12F0070F1ED0D11D21F07B
:101CD0000701C1F5406313440A460E480260002123
:101CE00041601344083B23F007030B48036059602D
:101CF0001960991A51601360084B1960084B1960FC
:101D0000084B4FF000421A6070474FF44063E4E71D
:101D1000140C002020180020100C00201C1800209B
:101D20001818002014180020154B1A461B6883420F
:101D3000FBD3516802EB010C844509D0416800EBEC
:101D4000010C634509D00360904218D010607047C1
:101D50004068014451601046F0E710B4094C246813
:101D6000A3420AD05B681944416013681B68036092
:101D7000904200D0106010BC70470460F8E77047D4
:101D800020180020100C002070B5054600F03EFE23
:101D9000344B1B68A3B1344B1B681D424AD135B18B
:101DA000083515F0070F02D025F007050835002D7E
:101DB00042D02E4B1B68AB424DD32D4A146804E031
:101DC000FFF780FFE7E722461C466368AB4202D27A
:101DD0002368002BF7D1234B1B68A3423DD0166824
:101DE00008362368136063685B1B102B10D96019D9
:101DF00010F0070F08D04FF0500383F31188BFF3A2
:101E00006F8FBFF34F8FFEE743606560FFF78CFF76
:101E1000626816490B689B1A0B60164909688B4269
:101E200001D214490B60104B1B68134363600023FD
:101E3000236002E0002600E0002600F081FE16F09C
:101E4000070F0CD04FF0500383F31188BFF36F8F4F
:101E5000BFF34F8FFEE70026EFE70026EDE73046A1
:101E600070BD00BF100C00201418002018180020AE
:101E7000201800201C18002080B338B50446A0F1BB
:101E8000080550F8043C164A1268134208D14FF076
:101E9000500383F31188BFF36F8FBFF34F8FFEE7BB
:101EA00050F8081C41B14FF0500383F31188BFF381
:101EB0006F8FBFF34F8FFEE723EA020340F8043C25
:101EC00000F0A4FD54F8041C064A13680B44136088
:101ED0002846FFF729FF00F033FE38BD704700BFEA
:101EE000141800201818002010B50446FFF7D2FD82
:101EF000A26BE36B9A4204D00024FFF7EDFD20466D
:101F000010BD0124F9E710B50446FFF7C3FDA36B2C
:101F100023B90124FFF7E0FD204610BD0024F9E7B6
:101F200070B504461546866B026C5AB903681BB13E
:101F300000200136A66370BD406800F0CBFF00238F
:101F40006360F6E76DB98068FEF7E2F8226CA3687B
:101F50001344A3606268934219D32368A3602846A0
:101F6000E7E7C068FEF7D4F8226C5142E3689B1A99
:101F7000E3602268934202D263680B44E360022D5F
:101F800001D00020D5E726B1013E0020D1E7284648
:101F9000CFE70020CDE708B50346026C62B10846E2
:101FA000D9681144D960D3F804C0614501D31968D8
:101FB000D960D968FEF7ACF808BD38B50546FFF71B
:101FC00069FD95F8454064B201E0013C64B2002C23
:101FD0000ADD6B6A43B105F1240000F0D1FE002850
:101FE000F3D000F061FFF0E7FF2385F84530FFF7FD
:101FF00073FDFFF74FFD95F8444064B201E0013CEA
:1020000064B2002C0ADD2B6943B105F1100000F029
:10201000B7FE0028F3D000F047FFF0E7FF2385F874
:102020004430FFF759FD38BD38B5E0B10D460446E0
:10203000FFF730FD2368E26B216C01FB023060602A
:102040000020A063A360013A02FB0133E360FF2399
:1020500084F8443084F84530FDB9236963B9FFF74B
:102060003BFD012038BD4FF0500383F31188BFF3CF
:102070006F8FBFF34F8FFEE704F1100000F080FE7A
:102080000028ECD04FF0E0234FF08052C3F8042D2D
:10209000BFF34F8FBFF36F8FE1E704F11000FFF73D
:1020A0005BFC04F12400FFF757FCD8E738B51D4668
:1020B000049C0B4649B92460E06323640121204657
:1020C000FFF7B2FF84F84C5038BD2260F4E740B906
:1020D0004FF0500383F31188BFF36F8FBFF34F8F1F
:1020E000FEE710B584B01C46844653B192B189B95D
:1020F0004FF0500383F31188BFF36F8FBFF34F8FFF
:10210000FEE74FF0500383F31188BFF36F8FBFF3E7
:102110004F8FFEE76AB150230393039B502B13D0DC
:102120004FF0500383F31188BFF36F8FBFF34F8FCE
:10213000FEE70029EFD04FF0500383F31188BFF37F
:102140006F8FBFF34F8FFEE7012384F84630009472
:102150009DF818306046FFF7A9FF204604B010BD77
:10216000F0B585B0019288B10F461D460446B1B165
:10217000022D20D1E36B012B1DD04FF0500383F3D0
:102180001188BFF36F8FBFF34F8FFEE74FF05003FF
:1021900083F31188BFF36F8FBFF34F8FFEE7036C9C
:1021A000002BE5D04FF0500383F31188BFF36F8FFE
:1021B000BFF34F8FFEE700F07DFE064658B9019B46
:1021C000002B48D04FF0500383F31188BFF36F8F7B
:1021D000BFF34F8FFEE700263DE02A4639462046F2
:1021E000FFF79EFE636A7BB948B14FF0E0234FF0E2
:1021F0008052C3F8042DBFF34F8FBFF36F8FFFF7EB
:102200006BFC012005B0F0BD04F1240000F0B8FD26
:102210000028F4D04FF0E0234FF08052C3F8042D93
:10222000BFF34F8FBFF36F8FE9E7FFF755FC002037
:10223000E8E702A800F0EAFD012619E0002384F88F
:10224000443021E0002384F8453023E02046FFF7A6
:10225000B4FE00F075FCFFF71DFCA26BE36B9A4225
:10226000BBD3022DB9D0019B002BDED0002EE0D0D5
:10227000FFF732FC00F0CAFBFFF70CFC94F8442097
:1022800052B2B2F1FF3FD9D094F8452052B2B2F128
:10229000FF3FD7D0FFF720FC01A902A800F0C2FD44
:1022A000D8B92046FFF720FE0028CFD0019904F1CD
:1022B000100000F031FD2046FFF77FFE00F040FCEB
:1022C0000028C8D14FF0E0234FF08052C3F8042D0E
:1022D000BFF34F8FBFF36F8FBDE72046FFF76DFE53
:1022E00000F02EFC00208DE72DE9F84390B10F4659
:1022F00016461C460546B1B1022C20D1EB6B012BD2
:102300001DD04FF0500383F31188BFF36F8FBFF3DD
:102310004F8FFEE74FF0500383F31188BFF36F8FA9
:10232000BFF34F8FFEE7036C002BE5D04FF0500357
:1023300083F31188BFF36F8FBFF34F8FFEE7FFF773
:1023400093FCEFF311894FF0500383F31188BFF32F
:102350006F8FBFF34F8FAA6BEB6B9A4206D3022CA1
:1023600004D0002089F31188BDE8F88395F84580F2
:102370004FFA88F8224639462846FFF7D1FDB8F1D2
:10238000FF3F06D008F101035BB285F8453001201C
:10239000E8E76B6A0BB90120E4E705F1240000F0DF
:1023A000EFFC18B126B101203060DBE70120D9E74E
:1023B0000120D7E7F0B585B0019290B10F460446F1
:1023C000C1B100F077FD064600BB019B002B5ED03B
:1023D0004FF0500383F31188BFF36F8FBFF34F8F1C
:1023E000FEE74FF0500383F31188BFF36F8FBFF305
:1023F0004F8FFEE7036C002BE3D04FF0500383F3C5
:102400001188BFF36F8FBFF34F8FFEE700263EE0CA
:1024100039462046FFF7BFFD013DA563236923B977
:10242000FFF75AFB012005B0F0BD04F1100000F0E9
:10243000A7FC0028F4D04FF0E0234FF08052C3F8FF
:10244000042DBFF34F8FBFF36F8FE9E7FFF744FB16
:102450000020E8E702A800F0D9FC012621E00023D3
:1024600084F8443029E0002384F845302BE02046EE
:10247000FFF7A3FD00F064FB09E02046FFF79DFD98
:1024800000F05EFB2046FFF73EFD00283FD1FFF73E
:1024900001FBA56B002DBBD1019B002BD6D0002EDC
:1024A000D8D0FFF719FB00F0B1FAFFF7F3FA94F870
:1024B00044305BB2B3F1FF3FD1D094F845305BB20A
:1024C000B3F1FF3FCFD0FFF707FB01A902A800F04F
:1024D000A9FC0028D1D12046FFF715FD0028C6D061
:1024E000019904F1240000F017FC2046FFF765FD78
:1024F00000F026FB0028CAD14FF0E0234FF08052B5
:10250000C3F8042DBFF34F8FBFF36F8FBFE70020D9
:1025100089E700000023072B0CD8074A52F8332024
:102520000AB10133F7E7044A42F8331002EBC30360
:1025300058607047704700BF2818002070B50446E7
:102540000D461646FFF7A6FA94F844305BB2B3F195
:10255000FF3F0DD094F845305BB2B3F1FF3F0BD095
:10256000FFF7BAFAA36B5BB12046FFF726FD70BDFB
:10257000002384F84430EDE7002384F84530EFE78A
:102580003246294604F1240000F0DEFBECE70000AF
:10259000084B1B681B6823B9074B4FF0FF321A60CA
:1025A0007047044B1B68DB68DB685A68024B1A6093
:1025B000704700BF6C180020181D00202DE9F0475F
:1025C00080460D4617469946089EDDF824A00A9CD1
:1025D0009200A521206B00F01DFF236B07F18042C4
:1025E000013A03EB820727F007074FF0000CBCF11C
:1025F0000F0F0BD815F80C2004EB0C0383F83420D4
:1026000015F80C3013B10CF1010CF0E7002384F83D
:102610004330372E00D93726E662E664002525656B
:10262000201DFFF7A4F904F11800FFF7A0F92461B9
:10263000C6F13806A6616462656584F858504A465A
:1026400041463846FFF7FEF92060BAF1000F01D08D
:10265000CAF80040BDE8F08738B5002407E004EB75
:10266000840293000E481844FFF776F90134372CA2
:10267000F5D90C4D2846FFF76FF90B4C2046FFF7B4
:102680006BF90A48FFF768F90948FFF765F9094847
:10269000FFF762F9084B1D60084B1C6038BD00BF96
:1026A00074180020EC1C0020001D0020201D0020BC
:1026B0004C1D0020381D00206C18002070180020D0
:1026C00010B50446FFF7E6F9224A13680133136098
:1026D000214B1B685BB1214B1B686BB91E4B1B6800
:1026E000DA6AE36A9A4207D81B4B1C6004E01A4B73
:1026F0001C601368012B29D0194A13680133136039
:102700006364E06A174B1B68984201D9154B186047
:1027100000EB8000211D144B03EB8000FFF72AF92A
:10272000FFF7DAF90D4B1B687BB10B4B1B68DA6ABC
:10273000E36A9A4209D24FF0E0234FF08052C3F887
:10274000042DBFF34F8FBFF36F8F10BDFFF784FFD2
:10275000D2E700BFD41C002068180020341D0020E0
:10276000E41C0020E81C00207418002010B504466A
:1027700090F8593063B1012B11D0022B0ED04FF0DD
:10278000500383F31188BFF36F8FBFF34F8FFEE7C2
:10279000006BFFF771FB2046FFF76EFB10BDFFF7E4
:1027A0006BFBFBE70F4B1B68D3B110B5FFF772F95A
:1027B0000D4BDB68DC68201DFFF700F90B4A13683E
:1027C000013B1360074A1368013B1360FFF784F96C
:1027D0002046FFF7CBFF034B1B68002BE6D110BD53
:1027E000704700BFD81C00204C1D0020D41C0020C6
:1027F00008B5FFF7D7FF074B1B68012BF9D94FF03E
:10280000E0234FF08052C3F8042DBFF34F8FBFF386
:102810006F8FEEE77418002070B504460D46174B15
:102820001E68174B18680430FFF7C8F8B4F1FF3F73
:102830000DD03444124B1B685C60A64210D9114B7A
:1028400018680F4B19680431FFF79FF870BD002D11
:10285000EFD00B4B196804310B48FFF78BF8F5E705
:102860000A4B1868064B19680431FFF78EF8084BBD
:102870001B68A342EAD9064B1C60E7E7601D0020F5
:102880006818002070180020381D00206C180020E7
:10289000181D002030B587B00B9C7CB10C9DB5B1E4
:1028A0005C250495049D5C2D1AD04FF0500383F3F2
:1028B0001188BFF36F8FBFF34F8FFEE74FF05003C8
:1028C00083F31188BFF36F8FBFF34F8FFEE74FF095
:1028D000500383F31188BFF36F8FBFF34F8FFEE771
:1028E0000C9D2C63022485F8594000240394029522
:1028F00005AC01940A9C0094FFF760FE0C98FFF76A
:10290000DFFE059807B030BD2DE9F04385B00746DE
:10291000884614461E469000FFF736FA00B38146FB
:102920005C20FFF731FA0546B0B1C0F83090E5B150
:10293000002385F85930039302950D9B01930C9B5E
:1029400000933346224641463846FFF737FE284675
:10295000FFF7B6FE012005E04846FFF78DFAE6E7EF
:102960004FF0FF3005B0BDE8F0834FF0FF30F9E7DE
:1029700010B588B000240594069407AA06A905A8F6
:10298000FEF7D2FF059B0293069B0193009423461A
:10299000079A18491848FFF77DFF184B186040B197
:1029A00000F04CFB012806D0B0F1FF3F18D008B072
:1029B00010BD0020F6E74FF0500383F31188BFF3FA
:1029C0006F8FBFF34F8F0E4B4FF0FF321A600D4BDE
:1029D00001221A600C4B00221A60FFF7E5F8E6E7C7
:1029E0004FF0500383F31188BFF36F8FBFF34F8F06
:1029F000FEE700BF30360008F1270008141D002054
:102A0000181D0020341D0020601D0020024A13689C
:102A100001331360704700BFE01C0020014B1868B1
:102A2000704700BF601D0020F8B53A4B1B68002BB3
:102A300064D1394B1D6801351D60C5B9374B1B6822
:102A40001B6843B14FF0500383F31188BFF36F8FBE
:102A5000BFF34F8FFEE7314A1168314B18681060A1
:102A60001960304A136801331360FFF791FD2E4B54
:102A70001B68AB4238D900272C4B1B68DB6A03EB81
:102A800083039A002A4B9B58012B3CD901273AE03B
:102A90000127224B1B681B6843B3204B1B68DB6874
:102AA000DC6863689D4226D3261D3046FEF786FF0C
:102AB000A36A1BB104F11800FEF780FFE36A1D4A08
:102AC0001268934201D91B4A136003EB83039A00F7
:102AD000314617481044FEF74DFFE26A134B1B685E
:102AE000DB6A9A42D4D2D4E70027D2E70E4B4FF0EC
:102AF000FF321A60C0E70C4A1360BDE70E4A136844
:102B00000133136000270D4B1B6803B101273846C2
:102B1000F8BD00BFE01C0020601D00206C180020E4
:102B2000701800201C1D0020181D002068180020AF
:102B300074180020E81C0020DC1C0020641D00200C
:102B400038B5354B1B6843B94FF0500383F31188F8
:102B5000BFF36F8FBFF34F8FFEE7FEF79BFF2E4B48
:102B60001A68013A1A601B68002B4FD12B4B1B6867
:102B70000BB900244BE00024294B1B681BB3284BE6
:102B8000DB68DC6804F11800FEF718FF251D2846F5
:102B9000FEF714FFE06A234B1B68984201D9214BD2
:102BA000186000EB800029461F4B03EB8000FEF706
:102BB000E1FEE26A1D4B1B68DB6A9A42DCD31C4BC8
:102BC00001221A60D8E70CB1FFF7E2FC194B1C6830
:102BD00084B9174B1C68D4B14FF0E0234FF08052FA
:102BE000C3F8042DBFF34F8FBFF36F8F01240EE0A6
:102BF000013C07D0FFF718FF0028F9D00C4B012249
:102C00001A60F5E70B4B00221A60E2E70024FEF79A
:102C100063FF204638BD00BFE01C0020D41C00200C
:102C2000201D0020E81C00207418002068180020D7
:102C3000641D0020DC1C002010B5A8B10446104B18
:102C40001B6843B14FF0500383F31188BFF36F8FBC
:102C5000BFF34F8FFEE7FFF7D9FE00212046FFF7B5
:102C6000DBFDFFF76DFF48B94FF0E0234FF08052D6
:102C7000C3F8042DBFF34F8FBFF36F8F10BD00BF9C
:102C8000E01C00201F4B1B681BB11F4B01221A6068
:102C900070471D4B00221A601C4B1B6803EB83011D
:102CA0008A001B498A585AB90BB1013BF6E74FF02D
:102CB000500383F31188BFF36F8FBFF34F8FFEE78D
:102CC00003EB830082000A4450684068506003EBC5
:102CD000830C4FEA8C020832114488420BD003EB7C
:102CE000830291000A4A0A445268D168094A116075
:102CF000064A13607047406862469100044A0A44DD
:102D00005060ECE7E01C0020641D0020E81C00205F
:102D1000741800206818002058B110B50C46094AF4
:102D200011681831FEF731FE01212046FFF774FDCE
:102D300010BD4FF0500383F31188BFF36F8FBFF3C3
:102D40004F8FFEE76818002038B570B10D46144665
:102D50000A4A11681831FEF70DFE0CB14FF0FF352D
:102D600021462846FFF758FD38BD4FF0500383F346
:102D70001188BFF36F8FBFF34F8FFEE768180020F5
:102D800038B5C368DC6824B304F118052846FEF79B
:102D900015FE184B1B682BBB251D2846FEF70EFEA3
:102DA000E06A154B1B68984201D9134B186000EB81
:102DB00080002946114B03EB8000FEF7DBFDE26A41
:102DC0000F4B1B68DB6A9A4211D901200D4B18602A
:102DD00038BD4FF0500383F31188BFF36F8FBFF3FB
:102DE0004F8FFEE729460848FEF7C4FDE7E70020BD
:102DF000EEE700BFE01C0020E81C00207418002053
:102E000068180020641D0020201D0020034B1B6853
:102E10000360034B1B684360704700BF1C1D00200C
:102E2000601D0020D8B170B50C46054601B3FEF711
:102E300031FE1B4B19686B68C81A2268B2F1FF3F5C
:102E400027D0184E3668D5F800C0B44501D08B4263
:102E500024D9824215D80023236001241AE04FF0C0
:102E6000500383F31188BFF36F8FBFF34F8FFEE7DB
:102E70004FF0500383F31188BFF36F8FBFF34F8F71
:102E8000FEE75B1A134423602846FFF7BFFF0024C8
:102E900000E00024FEF720FE204670BD0124F9E783
:102EA000601D00201C1D0020014B01221A6070478C
:102EB000641D0020054B1B6833B1054B1B680BB12B
:102EC000002070470220704701207047341D002009
:102ED000E01C002000283BD038B504461E4B1B6880
:102EE000834208D04FF0500383F31188BFF36F8FF4
:102EF000BFF34F8FFEE7036D43B94FF0500383F3E9
:102F00001188BFF36F8FBFF34F8FFEE7013B03655F
:102F1000C16AC26C91421DD00BB1002038BD051DA5
:102F20002846FEF74BFDE06CE062C0F13803A36178
:102F30000A4B1B68984201D9084B186000EB8000CF
:102F40002946074B03EB8000FEF714FD0120E5E75F
:102F5000002070470020E1E768180020E81C0020EE
:102F600074180020064B1A681368B3FA83F35B09E0
:102F7000036013B9D368186870470020704700BF1A
:102F8000681D002008B54160006191420CD8D21A3A
:102F900083699A4201D3012008BD011D094B1868BD
:102FA000FEF7F3FC0020F7E79A4201D2994206D2DD
:102FB000011D054B1868FEF7E8FC0020ECE7012036
:102FC000EAE700BF6C1D0020681D002030B583B00B
:102FD000FEF760FD114B1B681BB1FEF77DFD03B0D2
:102FE00030BD0F4D2846FEF7B7FC0E4C2046FEF7CD
:102FF000B3FC0D4B1D600D4B1C60002300930C4B6C
:103000000C4A10210A20FFF762F8044B18600028D0
:10301000E3D00949FFF77EFADFE700BF8C1E0020EE
:10302000101E0020241E0020681D00206C1D0020A2
:103030003C1E0020701D00203836000810B588B0F6
:10304000FFF7C4FF124B1B68CBB100240594069414
:1030500007AA06A905A8FEF773FC059B0293069B29
:103060000193022300932346079A0A490A48FFF76F
:1030700011FC0A4B186010B1012008B010BD4FF0D0
:10308000500383F31188BFF36F8FBFF34F8FFEE7B9
:103090008C1E0020403600087D330008901E002062
:1030A000B8B19C4603461848006858B300B585B0CF
:1030B00000910192029305291CDCFFF7FBFE022818
:1030C00010D000231A4669460F480068FFF748F8F9
:1030D00015E04FF0500383F31188BFF36F8FBFF3F8
:1030E0004F8FFEE70023069A694607480068FFF7FE
:1030F00037F804E0002362466946FFF7F5F805B0AB
:103100005DF804FB002070478C1E002070B582B073
:103110001A4B1B681A6852B3DB681E68DC68251DF1
:103120002846FEF74BFC636A20469847E369012B6B
:10313000EED1A36933449E4207D2636024612946DD
:103140000E4B1868FEF721FCE2E7002100910B46C8
:1031500032462046FFF7A4FF0028D9D14FF0500394
:1031600083F31188BFF36F8FBFF34F8FFEE7044ADD
:10317000106802490860136002B070BD681D00202D
:103180006C1D002038B50546FFF748FC0446074B88
:103190001B68834205D800232B60044B1C6020462B
:1031A00038BDFFF7B3FF01232B60F6E7381E002080
:1031B00070B582B006460D4614490968C968CC68E6
:1031C000201DFEF7FBFBE169012904D0636A20465C
:1031D000984702B070BDA16933462A463144204663
:1031E000FFF7D0FE0028F1D0002100910B463246B7
:1031F0002046FFF755FF0028E8D14FF0500383F336
:103200001188BFF36F8FBFF34F8FFEE7681D00205B
:1032100070B582B006460C46FFF7F8FB01A8FFF731
:10322000B1FF019B2BBB05460CB9B0421AD22CB1A1
:10323000124B1B681C68B4FA84F464092246711BA3
:103240000F4B1868FFF77AF9FFF77AFC98B94FF03F
:10325000E0234FF08052C3F8042DBFF34F8FBFF32C
:103260006F8F08E0FFF76CFC29463046FFF7A0FFA0
:1032700001E0FFF765FC02B070BD00BF6C1D0020CF
:103280008C1E002010B588B002E0049B002B0FDAE2
:10329000002204A9384B1868FFF78CF8002869D081
:1032A000049B002BF1DA07990698059B9847ECE7F9
:1032B000069C636913B1201DFEF780FB03A8FFF78E
:1032C00061FF049B092BE3D801A252F823F000BF51
:1032D000F9320008F9320008F9320008913200088A
:1032E0003F33000865330008F9320008F93200085E
:1032F000913200083F330008059BA169024619443A
:103300002046FFF73FFE0028C2D0636A2046984758
:10331000E369012BBCD1A269002100910B460598FD
:1033200002442046FFF7BCFE0028B1D14FF0500305
:1033300083F31188BFF36F8FBFF34F8FFEE70599BB
:10334000A16131B10346024601442046FFF71AFE4F
:103350009EE74FF0500383F31188BFF36F8FBFF3E5
:103360004F8FFEE794F82C30002B91D12046FEF7CA
:1033700083FD8DE708B010BD8C1E002000B583B022
:1033800001A8FFF7EFFD0199FFF742FFFFF77AFF72
:10339000F6E70000002301461A46184600F08AB8F6
:1033A00038B5084B084D5B1B9C1007D0043B1D44EF
:1033B000013C55F804399847002CF9D1BDE8384054
:1033C00000F0D0B8583600085436000870B50D4EDD
:1033D0000D4D761BB61006D0002455F8043B013481
:1033E0009847A642F9D1094E094D00F0B5F8761B71
:1033F000B61006D0002455F8043B01349847A64285
:10340000F9D170BD4C3600084C360008543600081F
:103410004C360008F0B4860746D0541E002A3CD033
:103420000346CAB201E0013C37D303F8012B9D07E4
:10343000F9D1032C2AD9CDB245EA05250F2C45EA4E
:10344000054534D9A4F1100222F00F0C03F1200736
:103450001609674403F1100242E9045542E9025596
:103460001032BA42F8D1721C14F00C0F03EB0212A6
:1034700004F00F0613D0331F23F003030433134467
:1034800042F8045B9342FBD106F003042CB1CAB2AC
:103490001C4403F8012B9C42FBD1F0BC704734461E
:1034A0001346002CF3D1F8E714460346C1E71A4649
:1034B0002646E0E72DE9F047DFF87CA00646DAF87B
:1034C000000098460F46914600F042F8194B1B68E1
:1034D000D3F8484124B36568DAF800001F2D24DCD6
:1034E0004EB96B1C0235636044F8257000F032F869
:1034F0000020BDE8F087012304EB8501C1F8889026
:10350000D4F88821AB401A43022EC4F88821C1F8B0
:103510000881E6D1D4F88C211343C4F88C31E0E75C
:1035200003F5A674C3F84841D5E700F013F84FF04F
:10353000FF30DEE74836000838040020024B13B1A4
:103540000248FFF727BF704700000000A1330008C2
:10355000704700BF704700BFF8B500BFF8BC08BC9B
:103560009E467047F8B500BFF8BC08BC9E46704741
:1035700041540A006D795461736B303300000000D0
:103580006D795461736B30320000000064656661D0
:10359000756C745461736B008C350008000000007A
:1035A0000000000000000000000000000002000019
:1035B0001800000000000000000000008035000836
:1035C00000000000000000000000000000000000FB
:1035D00000020000080000000000000000000000E1
:1035E000743500080000000000000000000000002A
:1035F00000000000000200001800000000000000B1
:1036000000000000000000000000000001020304B0
:103610000607080900000000010203040203040574
:10362000060708090A0B0C0D0E0F10100000000011
:1036300049444C4500000000546D725100000000E8
:0C364000546D72205376630010000020CF
:08364C003D35000821020008D1
:04365400FD0100086C
:103658000024F4000100000010000000AAAAAAAA91
:1036680000000000FC02002064030020CC030020BE
:103678000000000000000000000000000000000042
:103688000000000000000000000000000000000032
:103698000000000000000000000000000000000022
:1036A8000000000000000000000000000000000012
:1036B8000000000000000000000000000000000002
:1036C80000000000000000000000000000000000F2
:1036D80000000000000000000000000000000000E2
:1036E80000000000000000000000000000000000D2
:1036F80000000000000000000000000000000000C2
:1037080000000000000000000100000000000000B0
:103718000E33CDAB34126DE6ECDE05000B00000075
:103728000000000000000000000000000000000091
:103738000000000000000000000000000000000081
:103748000000000000000000000000000000000071
:103758000000000000000000000000000000000061
:0C3A88000000000000000000941E002060
:040000050800023DB0
:00000001FF
